:100000000C9461000C947E000C947E000C947E0095
:100010000C947E000C947E000C947E000C947E0068
:100020000C947E000C947E000C947E000C947E0058
:100030000C947E000C947E000C947E000C947E0048
:100040000C9455010C947E000C947E000C947E0060
:100050000C947E000C947E000C947E000C947E0028
:100060000C947E000C947E00000000002500280007
:100070002B0000000000240027002A0000000000E0
:1000800023002600290004040404040404040202DA
:100090000202020203030303030301020408102007
:1000A0004080010204081020010204081020000012
:1000B0000008000201000003040700000000000027
:1000C000000011241FBECFEFD8E0DEBFCDBF11E08E
:1000D000A0E0B1E0EAEDF4E002C005900D92AA398B
:1000E000B107D9F721E0AAE9B1E001C01D92A33A16
:1000F000B207E1F70E949F010C946B020C94000080
:10010000833081F028F4813099F08230A9F008958D
:100110008730A9F08830C9F08430B1F48091800034
:100120008F7D03C0809180008F7780938000089539
:1001300084B58F7784BD089584B58F7DFBCF809182
:10014000B0008F778093B00008958091B0008F7DCC
:10015000F9CF3FB7F89480919F019091A001A091B1
:10016000A101B091A20126B5A89B05C02F3F19F0AF
:100170000196A11DB11D3FBFBA2FA92F982F882727
:10018000BC01CD01620F711D811D911D42E0660F02
:10019000771F881F991F4A95D1F708958F929F92D4
:1001A000AF92BF92CF92DF92EF92FF920E94A9008E
:1001B0004B015C0184EFC82EDD24D394E12CF12C9B
:1001C0000E94A900681979098A099B09683E734051
:1001D00081059105A8F321E0C21AD108E108F108D0
:1001E00088EE880E83E0981EA11CB11CC114D104B6
:1001F000E104F10429F7FF90EF90DF90CF90BF90DA
:10020000AF909F908F900895BF92CF92DF92EF9220
:10021000FF920F931F93CF93DF930CE811E02EE032
:10022000289F7001299FF00C1124D0E0C0E0F80154
:10023000219131918F013327F901E255FF4F8491CC
:10024000F901E656FF4FD490F901EA57FF4FC490E9
:10025000CC20D1F0F701EC0FFD1FE050FF4FB08034
:1002600081110E948000EC2DF0E0EE0FFF1FE85995
:10027000FF4FA591B4918FB7F894EC91B11013C0D2
:10028000D094DE22DC928FBF2296C031D10509F0D6
:10029000CECFDF91CF911F910F91FF90EF90DF9024
:1002A000CF90BF900895DE2AEDCF1F920F920FB628
:1002B0000F9211242F933F938F939F93AF93BF93EC
:1002C00080919B0190919C01A0919D01B0919E0114
:1002D00030919A0123E0230F2D3758F50196A11D87
:1002E000B11D20939A0180939B0190939C01A09350
:1002F0009D01B0939E0180919F019091A001A091DA
:10030000A101B091A2010196A11DB11D80939F0191
:100310009093A001A093A101B093A201BF91AF91CE
:100320009F918F913F912F910F900FBE0F901F9033
:10033000189526E8230F0296A11DB11DD2CF7894FF
:1003400084B5826084BD84B5816084BD85B58260DA
:1003500085BD85B5816085BD80916E00816080938B
:100360006E001092810080918100826080938100F4
:100370008091810081608093810080918000816004
:10038000809380008091B10084608093B10080915F
:10039000B00081608093B00080917A008460809387
:1003A0007A0080917A00826080937A0080917A004E
:1003B000816080937A0080917A00806880937A00CF
:1003C0001092C100ACE8B1E02AE931E08D919D9135
:1003D0009927FC01E656FF4F44918A579F4FFC0135
:1003E0008491882399F090E0880F991FFC01EE58C2
:1003F000FF4FC591D491FC01E859FF4F859194912D
:100400008FB7F894E881E42BE8838FBF2A173B0766
:10041000E9F6CCE9D0E0FE01249108E810E0F8010B
:1004200084918823C9F090E0880F991FFC01EE5851
:10043000FF4FA591B491FC01E859FF4F45915491AC
:100440003FB7F8949C91822F809598239C93FA0152
:100450009081892380833FBF20EBE22E20E0F22EA3
:1004600030E0C32E30E0D32EF7018491FE01A4903A
:10047000F801B490B11014C0B12CA12CC5010E9498
:1004800004010E94CE00FFEFAF1ABF0A8AE0A8164F
:10049000B104A1F7C114D10439F30E940000E4CFE4
:1004A00081110E948000EB2DF0E0EE0FFF1FE45859
:1004B000FF4FA591B4918C91A822F1F289E0A82E6A
:1004C000B12CC5010E9404010E94CE00E1E0AE1AE9
:0A04D000B108B8F7DFCFF894FFCFB2
:1004DA00010001000100010001000100000000000C
:1004EA0001000100000000000000000001000100FE
:1004FA0000000100010000000100010001000100EC
:10050A0001000000000001000000010001000000DD
:10051A0000000100010001000000010001000000CC
:10052A0001000100010000000100010001000100BA
:10053A0001000100010001000000000000000000AD
:10054A000100010001000100010001000100010099
:10055A000100010001000000010001000D000C0073
:0A056A000B000A000900080007005A
:00000001FF
