:100000000C945C000C9479000C9479000C947900A9
:100010000C9479000C9479000C9479000C9479007C
:100020000C9479000C9479000C9479000C9479006C
:100030000C9479000C9479000C9479000C9479005C
:100040000C94EC000C9479000C9479000C947900D9
:100050000C9479000C9479000C9479000C9479003C
:100060000C9479000C947900000000002400270013
:100070002A0000000000250028002B0004040404CE
:100080000404040402020202020203030303030342
:10009000010204081020408001020408102001021F
:1000A00004081020000000080002010000030407FB
:1000B000000000000000000011241FBECFEFD8E0B8
:1000C000DEBFCDBF11E0A0E0B1E0EEE2F4E002C09F
:1000D00005900D92A431B107D9F721E0A4E1B1E078
:1000E00001C01D92AF31B207E1F70E9436010C94B6
:1000F00015020C94000090E0FC01EC55FF4F249198
:10010000FC01E057FF4F3491FC01E458FF4FE491AC
:10011000EE23C9F0222339F0233001F1A8F4213075
:1001200019F1223029F1F0E0EE0FFF1FEE58FF4FDA
:10013000A591B4918FB7F894EC91611126C03095D8
:100140003E233C938FBF08952730A9F02830C9F093
:10015000243049F7809180008F7D03C0809180001A
:100160008F7780938000DFCF84B58F7784BDDBCF1E
:1001700084B58F7DFBCF8091B0008F778093B000E6
:10018000D2CF8091B0008F7DF9CF3E2BDACF3FB731
:10019000F89480911B0190911C01A0911D01B091D8
:1001A0001E0126B5A89B05C02F3F19F00196A11D81
:1001B000B11D3FBFBA2FA92F982F8827BC01CD01B1
:1001C000620F711D811D911D42E0660F771F881F10
:1001D000991F4A95D1F708951F920F920FB60F926B
:1001E00011242F933F938F939F93AF93BF9380914D
:1001F000170190911801A0911901B0911A01309145
:10020000160123E0230F2D3758F50196A11DB11DCE
:10021000209316018093170190931801A093190160
:10022000B0931A0180911B0190911C01A0911D01B6
:10023000B0911E010196A11DB11D80931B019093E9
:100240001C01A0931D01B0931E01BF91AF919F911E
:100250008F913F912F910F900FBE0F901F90189587
:1002600026E8230F0296A11DB11DD2CF789484B544
:10027000826084BD84B5816084BD85B5826085BDA2
:1002800085B5816085BD80916E00816080936E0030
:100290001092810080918100826080938100809122
:1002A00081008160809381008091800081608093D3
:1002B00080008091B10084608093B1008091B00093
:1002C00081608093B00080917A00846080937A008E
:1002D00080917A00826080937A0080917A008160B8
:1002E00080937A0080917A00806880937A001092DF
:1002F000C10026E131E0A0E0B1E08D919D91992708
:10030000FC01E057FF4F449184589F4FFC018491BA
:10031000882399F090E0880F991FFC01E859FF4F5E
:10032000C591D491FC01EE58FF4F859194918FB700
:10033000F894E881E42BE8838FBF2A173B07E9F69E
:10034000EEE9F0E02491EAE8F0E084918823C1F03E
:1003500090E0880F991FFC01E859FF4FC591D49197
:10036000FC01EE58FF4FA591B4919FB7F894888196
:10037000E22FE0958E2388838C91E823EC939FBF36
:1003800080E4882E90E0A92E90E0B92E80927C0027
:1003900080917A00806480937A0080917A0086FD53
:1003A000FCCF009178001091790010931501009313
:1003B0001401C0E0D1E09880229661E0892D0E946E
:1003C0007B006801012E000CEE08FF080E94C700A8
:1003D0002B013C01C114D104E104F104B9F00E94E5
:1003E000C7006419750986099709683E734081053D
:1003F000910580F3F1E0CF1AD108E108F10828EE69
:10040000420E23E0521E611C711CE4CF60E0892D76
:100410000E947B00F1E0C431DF0769F6A114B1044A
:0E04200009F4B4CF0E940000B1CFF894FFCFD2
:10042E000D000C000B000A00090008000700060072
:04043E0005000400B1
:00000001FF
